:020000040800F2
:10000000E8E80120D9010008EDB50008EFB50008C7
:10001000F1B50008F3B50008F5B5000800000000D0
:10002000000000000000000000000000F7B500081C
:10003000F9B5000800000000FBB50008FFB5000896
:10004000F3010008F3010008F30100084FB20008B3
:10005000F3010008F3010008F301000827ED000890
:10006000A5ED0008F3010008F3010008F301000802
:10007000F3010008F3010008F3010008F301000890
:10008000F3010008F3010008F3010008F301000880
:10009000F3010008F3010008F301000825B8000887
:1000A000F3010008F3010008F3010008F301000860
:1000B000F301000803B60008A1EC0008F3010008F2
:1000C000F3010008F3010008F3010008F301000840
:1000D000F3010008F301000891B60008A3B6000878
:1000E000F301000879B20008F3010008F3010008E9
:1000F000F3010008F3010008F3010008F301000810
:10010000F3010008F3010008B5B60008F301000888
:10011000F3010008F3010008EDEC0008F30100080A
:10012000F3010008F3010008F3010008F3010008DF
:10013000F301000800000000000000008BB600087A
:1001400071B60008F3010008F301000857B3000876
:10015000F3010008F3010008F3010008F3010008AF
:10016000F3010008F3010008F3010008F30100089F
:10017000F3010008F3010008F3010008000000008B
:1001800000000000F3010008000000000000000073
:10019000F30100080000000000000000F301000867
:1001A000000000000000000000000000F301000853
:1001B000F3010008F3010008F3010008F30100084F
:1001C000F3010008DFF80CD016F04AFF00480047A2
:1001D000C1B40008E8E80120064880470648004707
:1001E000FEE7FEE7FEE7FEE7FEE7FEE7FEE7FEE7E7
:1001F000FEE7FEE765B80008C5010008704710B5C6
:10020000044602F077FF4FF47A72B0FBF2F000F090
:100210001DFF00222146501E00F0C3FE002010BD2D
:100220004D4810B5016841F400710160016841F466
:1002300080610160016841F480710160032000F079
:10024000A1FE0F20FFF7DBFF0BF078FB002010BDB5
:100250007047424A10B54FF0FF3010600021116026
:10026000121D106011603E4A10601160121D106076
:100270001160121D10601160FFF7EAFF002010BD31
:1002800038480168491C016070473648006870476B
:1002900031B50AF06AF904460AF067F90099001BC3
:1002A0008842F9D338BD4FF0E020016921F0020106
:1002B000016170474FF0E020016941F002010161E6
:1002C00070474FF08270704727480068000C7047F5
:1002D00025480068C0F30B0070472348416841F08F
:1002E0000101416070472048416821F001014160EF
:1002F00070471D48416841F00201416070471A484B
:10030000416821F00201416070471748416841F09F
:100310000401416070471448416821F004014160C4
:100320007047012090FAA0F1B1FA81F1890001F142
:10033000844101F51C11C1F800047047012191FAB4
:10034000A1F10020B1FA81F1890001F1844101F5A8
:100350001C11C1F800047047003C024020380240E4
:100360001038024000000020002004E07047002800
:1003700004BF012070472DE9F041044690F8380091
:10038000002620B984F8396020460BF0B8FB022023
:1003900084F838002068016821F0020101602068BB
:1003A000016841F0010101600AF0DFF805462068AC
:1003B00040684FF0030710F0010F09D10AF0D5F89B
:1003C000401B0A2862D82068406810F0010FF5D061
:1003D0002068416811F0010F69D0A1690129016805
:1003E0000CBF41F0800121F080010160E06901282B
:1003F000206801680CBF41F0400121F0400101601C
:10040000206A0128206801680CBF41F0200121F01A
:1004100020010160606A0128206801680CBF41F07A
:10042000100121F010010160A06A01282068016814
:100430000CBF41F0080121F008010160E06A0128C9
:10044000206801680CBF41F0040121F00401016043
:10045000D4E902010843D4E9041211430843616856
:10046000491E08432168C8612068016821F0010124
:1004700001600AF07AF805462068406810F0010F24
:1004800010D00AF072F8401B0A2806D984F8387098
:1004900084F839600320BDE8F0812068406810F0DE
:1004A000010FEED12068406810F0010F05D0042044
:1004B00084F838000120BDE8F081E663012084F86B
:1004C00038000020BDE8F08130B4087D012202FA36
:1004D00000F0FE4A136843F001031360136823F42D
:1004E0007C531360D2F800C04B6A4CEA03231360BC
:1004F000DFF8DCC3DCF800308343CCF80030F54B88
:10050000CC69D4B91C6884431C608D894C6865F340
:100510001F444D69ED0005F1804505F5C045C5F85E
:1005200040460D890C6865F31F444D69ED0005F1E7
:10053000804505F5C045C5F84446CC69012C1AD163
:100540001C6804431C600C884B6864F31F434C69AF
:10055000E40004F1804404F5C044C4F840360C893A
:10056000CB6864F31F434C69E40004F1804404F554
:10057000C044C4F84436D84B8C69002C1C680CBFAE
:10058000844304431C60D54B0C6914B91C68844334
:100590001C600C69012C02D11C6804431C60096AB0
:1005A000012904D1DCF800100843CCF800001068E1
:1005B00020F00100106030BC002070477047002818
:1005C00004BF0120704710B50446022084F83800AB
:1005D00020460BF0D0FA002084F8380084F8390067
:1005E00010BD2DE9F05F044690F839000E46012851
:1005F00004BF0220BDE8F09F012084F8390094F880
:10060000380022280CBF3220122084F838002168DC
:1006100088684FF0000710F0806F18BF00256DD07C
:100620004FF4C07000EB05100A5802F001020A50A6
:10063000216B22688B68002B76D052F800C04CEA00
:100640000303D1F80CC049684CEAC10119431150A9
:10065000216B0A7C02F00F020A614FF4C27122681A
:1006600001EB0511535823F00F03535022685358E0
:10067000D4F830C0DCF810C043EA0C035350216BAF
:100680004FF4C47303EB05130A7DD1F8151042EA49
:1006900001212268D150216B4FF4C67303EB05137F
:1006A0000A7ED1F8191042EA01212268D15021684E
:1006B0000A5842F001020A5009F057FFDFF8209271
:1006C000DFF820A2DFF820B2804665B32068012D54
:1006D000806838D03BEA000041D0B6F1FF3F36D009
:1006E0002EB109F042FFA0EB0800B0422FD9032041
:1006F00084F8380084F83970BDE8F09F886810F0FD
:10070000006F18BF01258BD1886810F0805F18BF7B
:10071000022585D1042084F8380084F8397001203E
:10072000BDE8F09F00E008E01358D1F80CC009883C
:1007300043EA0C0343EA415189E72068806839EABB
:100740000000CAD10BE03AEA0000C6D107E09DB133
:100750002068012D806815D03BEA0000BDD194F8D7
:10076000380032280CBF2220012084F8380084F899
:1007700039700020BDE8F09F2068806839EA0000E9
:10078000ABD1ECE73AEA0000A7D1E8E730B490F843
:100790003810012918BF22297ED190F8391001297B
:1007A0007AD0012180F839100368996811F0806FC0
:1007B00018BF002271D04FF4C07101EB021153F841
:1007C00001C00CF0010C43F801C0036BD3F808C062
:1007D000BCF1000F78D00468655845EA0C0CDD6860
:1007E0005B6845EAC3034CEA03036350036B93F869
:1007F00010C00CF00F0CC3F810C04FF4C273D0F847
:1008000000C003EB02135CF8034024F00F044CF823
:100810000340D0F800C05CF80340056B2D692C4301
:100820004CF80340036B4FF4C47404EB021493F8C8
:1008300014C0D3F815304CEA0323D0F800C04CF8AC
:100840000430036B4FF4C67404EB021293F818C023
:10085000D3F819304CEA0323D0F800C04CF802302A
:1008600090F83820222A0CBF3222122280F8382039
:100870000022C26380F839200268536943F4807310
:1008800053610268536943F400735361026853690A
:1008900043F48063536101E045E029E00268536955
:1008A00043F4006353610268536943F400435361A6
:1008B0000268536943F0010353610068425842F0F3
:1008C00001024250002011E021E0000000660040DB
:1008D0001C6600400C660040046600401466004040
:1008E00003000004000300080000031030BC704740
:1008F000996811F0006F18BF01227FF45CAF99680E
:1009000011F0805F18BF02227FF455AFDAE7D0F80C
:1009100000C05CF80140DD681B882C4344EA435367
:100920004CF8013062E70220CDE72DE9F04704469C
:1009300090F8390016460D46012804BF0220BDE894
:10094000F0874FF0010884F8398094F838001228B5
:100950000CBF3220222084F8380009F006FE8146C0
:100960002068002D0CBFC068006910F0030F4FF025
:1009700000076DD04FF4D870216800EB05100958BE
:1009800011F00402616B8A602268616B125807BF24
:10099000520D0A60D2084A6021680858616B00F065
:1009A0000200C8604FF4DA70216800EB05100958A6
:1009B000626B01F00F01116121680858616BC0F38F
:1009C0000720C8614FF4DC70216800EB051009585E
:1009D000626B117521680958626B090A51752168AB
:1009E0000958626B090C917521680858616B000EFB
:1009F000C8754FF4DE70216800EB05100958626B72
:100A0000117621680958626B090A517621680958E4
:100A1000626B090C917621680858616B000E002DFD
:100A2000C87620680CBFC168016941F020010CBF85
:100A3000C160016194F83800322806BF122084F8A2
:100A4000380084F8388084F839700020BDE8F087D9
:100A5000B6F1FF3F0DD02EB109F087FDA0EB0900E4
:100A6000B04206D9032084F8380084F83970BDE814
:100A7000F0872068002D0CBFC068006910F0030FDC
:100A8000E6D077E790F83820012A18BF122A40D123
:100A900090F83920012A3CD0012280F8392090F8C2
:100AA0003820122A0CBF3222222280F8382000235C
:100AB000C3630268D2F814C04CF4807CC2F814C03E
:100AC0000268D2F814C04CF4007CC2F814C002686A
:100AD000D2F814C04CF4806CC2F814C00268D2F88A
:100AE00014C04CF4006CC2F814C00268D2F814C0F0
:100AF0004CF4004CC2F814C080F83930006800296A
:100B000041690CBF41F0020141F010014161002038
:100B10007047022070472DE9F041044690F83900F3
:100B2000012804BF0220BDE8F081012784F8397054
:100B3000022084F838002068016821F0010141F0AA
:100B40000201016020684068002600F003000228CE
:100B50001EBF84F839600120BDE8F08109F005FD71
:100B600005462068406800F00300022811D009F013
:100B7000FCFC401B0A2806D9032084F8380084F8BE
:100B80003960BDE8F0812068406800F00300022869
:100B9000EDD184F8387084F839600020BDE8F08128
:100BA0002DE9F041044690F83900012804BF0220E5
:100BB000BDE8F081012784F83970022084F83800FC
:100BC0002068016821F00201016009F0CEFC0546B1
:100BD000206840684FF0000610F0020F10D009F0B6
:100BE000C4FC401B0A2806D9032084F8380084F886
:100BF0003960BDE8F0812068406810F0020FEED146
:100C00002068406810F0020F1EBF84F83960012090
:100C1000BDE8F08184F8387084F839600020BDE8C0
:100C2000F0817047704710B54FF4D872036802EB3B
:100C300001129B5813F0040C436BC3F808C0D0F8A2
:100C400000C0436B5CF802C007BF4FEA5C5CC3F8AE
:100C500000C04FEADC0CC3F804C003689A58436B29
:100C600002F00202DA604FF4DA72036802EB01125A
:100C70009B58D0F834C003F00F03CCF81030036851
:100C80009A58436BC2F30722DA614FF4DC720368AF
:100C900002EB01129B58D0F834C08CF81430036872
:100CA0009B58D0F834C01B0A8CF8153003689B5849
:100CB000D0F834C01B0C8CF8163003689A58436B7C
:100CC000120EDA754FF4DE72036802EB01129B58C4
:100CD000D0F834C08CF8183003689B58D0F834C072
:100CE0001B0A8CF8193003689B58D0F834C01B0CD1
:100CF0008CF81A3003689A58436B120E0029DA7682
:100D000001680DD00A6942F020020A6101684A694F
:100D100022F010024A6190F83810222922D108E00E
:100D2000CA6842F02002CA6001684A6922F00202E1
:100D3000F0E701684A6922F480724A6101684A69F1
:100D400022F400724A6101684A6922F480624A61B1
:100D500001684A6922F400624A6101684A6922F422
:100D600000424A6190F8381032290CBF122101214B
:100D700080F83810FFF756FF002010BD704770B59F
:100D80000168044648694FF0010510F0010F45D095
:100D90008868794A32EA00000CBF012000208A6886
:100DA000764B33EA02020CBF012200228B68DFF887
:100DB000D0C13CEA03030CBF0123002310431843B6
:100DC0002CD04A69204622F001024A6194F838107A
:100DD000122918D101684A6922F480724A610168B7
:100DE0004A6922F400724A6101684A6922F4806209
:100DF0004A6101684A6922F400624A6101684A69ED
:100E000022F400424A6190F83810322906BF2221AC
:100E100080F8381080F83850FFF7B0FF2068C168BC
:100E2000406911F0030FC0F3400018BF002804D040
:100E30004FF000012046FFF7F6FE20680169406987
:100E400011F0030FC0F3001018BF002804D04FF0BA
:100E500001012046FFF7E7FE2068816911F0010FCC
:100E600041694369C1F30021C3F3C0331CBF0029AA
:100E7000002B06D0E16B41F00101E1636FF001014D
:100E80008161206881694269C1F340014369C2F30D
:100E90004022C3F3C03300291CBF002A002B06D018
:100EA000E16B41F00201E1636FF0020181612068B2
:100EB00081694269C1F380014369C2F38022C3F3AF
:100EC000C03300291CBF002A002B06D0E16B41F083
:100ED0000401E1636FF0040181612168886910F009
:100EE000700F0CBF012000204A694B69C2F3C02279
:100EF000C3F3C03388BB002A18BF002B2DD08869EC
:100F000000F07000402804BFE06B40F040001FD0AC
:100F100012DC102804BFE06B40F0080018D0202835
:100F200004BFE06B40F0100012D0302804BFE06B2B
:100F300040F020000CD00CE0502804BFE06B40F0E3
:100F4000800005D0602804BFE06B40F4807000D1C1
:100F5000E063886920F070008861E06B002808BFBA
:100F600070BD84F838502046FFF75BFE70BD90F8E6
:100F700038007047C06B704703000004000300088E
:100F800000000310894A00F0070011684FF6FF03C4
:100F9000194041EA002040F0FD7040F08060106090
:100FA0007047824B10B41B68C3F30223C3F1070CD4
:100FB000BCF1040F88BF4FF0040C1C1D072C34BF7C
:100FC0000023DB1E012404FA0CFCACF1010C0CEA3A
:100FD0000101994004FA03F35B1E1A4011430028F3
:100FE0004FEA0111A1BF00F1E02080F8001410BC0D
:100FF000704700F00F0000F1E02080F8141D10BCD5
:10100000704700F01F01012202FA01F1400980003F
:1010100000F1E020C0F80011704700F01F0101222C
:1010200002FA01F14009800000F1E020C0F88011CF
:101030007047BFF34F8F5D4801685D4A01F4E0617E
:1010400011430160BFF34F8F00BFFDE7401EB0F1B9
:10105000807F24BF012070474FF0E0214861554A4E
:10106000F02082F8140D002088610720086100201C
:101070007047514A417811600378111D0A1D002BF9
:1010800004BF002008601AD043680B60017BC37A5C
:10109000090741EA0361837A41EAC341437B41EA9C
:1010A0008341837B41EA4341C37B41EA0341437A65
:1010B00041EA0321037A007841EA430108431060C2
:1010C00070473A480068C0F30220704730B40028E7
:1010D000B8BF00F00F0000F1E020B4BF90F8140D8D
:1010E00090F800044FEA101C01F00700C0F107015E
:1010F000042988BF0421041D072C34BF0020C01E12
:101100002CFA00F5012404FA01F1491E294004FAE1
:1011100000F0401E00EA0C001160186030BC7047FF
:1011200000F01F01012202FA01F14009800000F1E4
:10113000E020C0F8001270474109890001F1E02168
:10114000D1F8001200F01F00012202FA00F008405E
:1011500018BF0120704700F01F01012202FA01F1BF
:101160004009800000F1E020C0F88012704741097A
:10117000890001F1E021D1F8001300F01F000122E5
:1011800002FA00F0084018BF012070474FF0E0213C
:10119000042808690CBF40F0040020F00400086136
:1011A0007047704710B5FFF7FCFF10BD0CED00E075
:1011B0000400FA050FE000E098ED00E0002804BF0D
:1011C0000120704730B40221436A80F8351002686C
:1011D0001168DFF854C401EA0C01D0E901C44CEAFB
:1011E000040CD0E903452C434CEA040C4469042B5D
:1011F0004CEA040C84694CEA040CC4694CEA040C03
:10120000046A4CEA040C4CEA010104D1D0E90B3C1D
:1012100043EA0C031943116003685969426A21F0DB
:1012200007011143042A04BF826A1143596101680E
:10123000FE4BCAB2103AA3FB0232FD4B1209032A3D
:101240009B5C43656FF3090188BF091D016500219F
:10125000C164012180F8351030BC0020704700289F
:1012600019BF90F8351002290120704701680A68FB
:1012700022F001020A6001684FF0000CC1F800C0C2
:101280000168C1F804C00168C1F808C00168C1F86C
:101290000CC00168C1F810C002684FF02101516113
:1012A0000168E24BCAB2A2F11002A3FB0232E04B8A
:1012B0004FEA1212032A9B5C43656FF3090188BF52
:1012C000091D3F229A4001658A60C0F84CC080F831
:1012D00035C080F834C00020704790F834C0BCF1AD
:1012E000010F04BF0220704710B44FF0010C80F8CA
:1012F00034C04FF0020C80F835C0D0F800C0DCF8E4
:10130000004024F00104CCF80040D0F800C0DCF824
:10131000004024F48024CCF80040D0F800C0CCF881
:1013200004308368402B036803BF9A600268D16071
:1013300099601CBF0168CA600068016841F0010142
:10134000016010BC0020704790F834C0BCF1010F60
:1013500004BF0220704710B44FF0010C80F834C075
:101360004FF0020C80F835C0D0F800C0DCF8004027
:1013700024F00104CCF80040D0F800C0DCF80040B4
:1013800024F48024CCF80040D0F800C0CCF804301D
:101390008368402B036803BF9A600268D16099603C
:1013A0001CBF0168CA6001680A6842F01E020A6038
:1013B00001684A6942F080024A610068016841F0B0
:1013C0000101016010BC0020704770B50446006840
:1013D000016821F00101016009F0C7F805462068A5
:1013E00000684FF0000610F0010F14D009F0BDF8AE
:1013F000401BB0F57A7F09D9E06C40F02000E06432
:1014000084F83460032084F8350070BD20680068DB
:1014100010F0010FEAD184F83460012084F835001F
:10142000002070BD2DE9F05F04461646D4E9145043
:101430005FEA01080CBF2021102101FA00F709F032
:1014400094F8814628684FF0000A384208BFDFF858
:10145000E4B152D12A6894F85400082181400A402E
:1014600029680BFA00F3D5F800C01940724B03FA53
:1014700000F00CEA000042EA0103034325D042B128
:10148000E26C42F00102E26494F8543008229A407F
:10149000AA6041B1E16C41F00201E16494F854109A
:1014A0000BFA01F1A96040B1E06C40F00400E06487
:1014B00094F8541060488840A860042084F83500EF
:1014C00084F834A00120BDE8F09FB6F1FF3F11D0B1
:1014D0002EB109F04AF8A0EB0900B0420AD9E06C3D
:1014E00040F02000E064032084F8350084F834A044
:1014F000BDE8F09F28683842ACD0B8F1000F1BD08F
:1015000094F854104FF0100000FA01F0A860206821
:10151000016811F4802F4FF031011ABF026812F4F4
:10152000002F84F8351024D0006810F4002F1CBF61
:10153000412084F835001CE094F854004FF030014D
:1015400001FA00F0A8602068016811F4802F4FF0C4
:1015500011011ABF026812F4002F84F8351006D06A
:10156000006810F4002F1CBF212084F8350084F897
:1015700034A04FF00000BDE8F09F2DE9F041056D6B
:101580000446286894F85420082101FA02F2104217
:101590004FF004074FF000061AD02068026812F0DE
:1015A000040F15D0026822F00402026094F854007F
:1015B00001FA00F0A860E06C40F00100E06484F8FB
:1015C000357084F83460A16C00291CBF2046884720
:1015D000286894F85420174901FA02F210421AD0F0
:1015E0002068426912F0800F15D0426922F0800213
:1015F000426194F8540001FA00F0A860E06C40F0F9
:101600000200E06484F8357084F83460A16C00292D
:101610001CBF20468847286894F85420064901FAE0
:1016200002F2104225D009E03F8010F0ABAAAAAA2E
:10163000E07A010801008000040080002068026850
:1016400012F0020F15D0026822F00202026094F834
:10165000540001FA00F0A860E06C40F00400E0647F
:1016600084F8357084F83460A16C00291CBF2046D2
:101670008847286894F85410102202FA01F10842B1
:101680002FD02068036813F0080F2AD0036813F4E2
:10169000802F4FF0310310D0A9602068016811F449
:1016A000002F08BF84F8353016D0006810F4002FE2
:1016B0001CBF412084F835000EE0016811F4807FE2
:1016C00003D1016821F00801016094F8540002FA86
:1016D00000F0A86084F83530216C00291CBF20463A
:1016E0008847286894F85410202202FA01F1084231
:1016F00008BFBDE8F0812068036813F0100F08BF31
:10170000BDE8F081036813F4802F12D0A96020682F
:10171000016811F4002F08D0006810F4002F1ABFE0
:10172000E16B0029BDE8F0811DE0616CD9B9BDE82D
:10173000F081016811F4807F03D1016821F010016C
:10174000016094F8540002FA00F0A860E06CE064D4
:101750004FF0110084F8350084F83460E16B002903
:1017600008BFBDE8F0812046BDE8F041084790F889
:1017700035007047C06C70472DE9F84FDFF89C9337
:101780000022DFF894834FF0010E0F2709F1040ABD
:101790000B680EFA02F52B40AB4240F0E980D1F81D
:1017A00004C0BCF1020F18BFBCF1120F15D14FEAF3
:1017B000D20C00EB8C0CDCF820604FEA42744FEA4C
:1017C000D46407FA04FB26EA0B06D1F810B00BFA32
:1017D00004F444EA0604CCF8204006684FEA420CC0
:1017E00091F804B04FF0030404FA0CF40BF0030B6F
:1017F00026EA04060BFA0CFB4BEA060606604E6866
:10180000012E18BF022E03D0112E18BF122E14D194
:101810008668D1F80CB026EA04060BFA0CFB4BEAFA
:1018200006068660466826EA05050E79C6F30016A8
:1018300006FA02F646EA05054560C56825EA04048D
:101840008D6805FA0CFC4CEA040CC0F80CC0D1F809
:1018500004C01CF0805F7DD0D8F800C04CF4804CF0
:10186000C8F800C0D8F800C00CF4804CCDF800C017
:1018700022F0030C0CF1804505F59835D5F808C821
:101880004FEA82744FEA147407FA04F62CEA06064B
:10189000A0F1804CBCF5003C30D0A0F1804CBCF5F0
:1018A000013C08BF4FF0010C28D0A0F1804CBCF5E2
:1018B000023C08BF4FF0020C20D0A0F1804CBCF5D8
:1018C000033C08BF4FF0030C18D0A0F1804CBCF5CE
:1018D000043C08BF4FF0040C10D0A0F1804CBCF5C4
:1018E000053C08BF4FF0050C08D0A0F1804CBCF5BA
:1018F000063C0CBF4FF0060C4FF0080C0CFA04FC31
:101900004CEA060CC5F808C8D9F800C04C682CEAA7
:10191000030C14F4803F18BF4CEA030CC9F800C054
:10192000DAF800C04C682CEA030C14F4003F18BF2E
:101930004CEA030CCAF800C0794CD4F800C04D68DA
:101940002CEA030C15F4801F18BF4CEA030CC4F8F2
:1019500000C000E00CE0734CD4F800C04D682CEAE5
:10196000030C15F4001F18BF4CEA030CC4F800C0A8
:10197000521C102AFFF40CAFBDE8F88F2DE9F04F90
:10198000DFF89891002209F1040A4FF0010E4FF0A0
:101990000F080AF1040B0EFA02F401EA0403A34251
:1019A0007ED1056856004FF0030C0CFA06FC25EAC0
:1019B0000C050560D50800EB85052E6A5707FF0E5C
:1019C00008FA07F7BE432E62856825EA0C05856094
:1019D000456825EA04044460C46824EA0C0CC0F895
:1019E0000CC022F0030C0CF1804404F59834D4F8B8
:1019F00008C895072E0F08FA06F505EA0C07A0F1AE
:101A0000804CBCF5003C30D0A0F1804CBCF5013CD2
:101A100008BF4FF0010C28D0A0F1804CBCF5023C6F
:101A200008BF4FF0020C20D0A0F1804CBCF5033C65
:101A300008BF4FF0030C18D0A0F1804CBCF5043C5B
:101A400008BF4FF0040C10D0A0F1804CBCF5053C51
:101A500008BF4FF0050C08D0A0F1804CBCF5063C47
:101A60000CBF4FF0060C4FF0080C0CFA06FCBC45FE
:101A700021D1D4F808C82CEA050CC4F808C8D9F854
:101A800000C02CEA030CC9F800C0DAF800C02CEA48
:101A9000030CCAF800C0DBF800C02CEA030C00E01D
:101AA00009E0CBF800C0DFF87CC0DCF8004024EA95
:101AB0000303CCF80030521C102AFFF46CAFBDE8D1
:101AC000F08F0069084018BF01207047002A08BF46
:101AD000090481617047426951404161704781B09A
:101AE00041F480320092C261C1610099C161C16953
:101AF0000091C06910F4803F14BF0020012001B0A4
:101B00007047704708490A68024208BF704710B51D
:101B10000860FFF7F6FF10BD44380240003C01406A
:101B2000083C01400C3C0140143C01407047002837
:101B300004BF012070472DE9F04104468AB003201C
:101B400084F8910220460DF017FA206807F055FB43
:101B500004F11000251D90E8CF118DE8CF11D4E9D4
:101B60000C01CDE9080194E80F0007F0D9FA012132
:101B7000206807F048FB0C35B5E8CF118DE8CF1190
:101B8000D5E90001CDE9080194E80F0008F0B7F8A5
:101B9000012084F891020AB00020BDE8F081F0B580
:101BA00083B00446DDE9095094F890C2089EBCF168
:101BB000010F02BF022003B0F0BD4FF0010C84F80A
:101BC00090C201EB810C04EBCC0C02F07F078CF887
:101BD0003830ACF840008CF839108CF83F508CF855
:101BE0003A70D7098CF83B708CF83C600096CDE9D0
:101BF0000150206808F02BF9002184F8901203B0FE
:101C0000F0BD10B5044690F89002012804BF0220F0
:101C100010BD012084F89002206808F0A8FA002086
:101C200084F8900210BD7047002804BF012070475F
:101C300010B50446032084F8910220460DF0A3F964
:101C4000206807F0DAFA002084F8910210BD2DE92F
:101C5000F00301EB810CDDE90679DDE9086500EBB5
:101C6000CC0C4FF002088CF83B208CF83F30002F52
:101C700006BF03248CF842408CF84280002433B124
:101C8000012B4CD0022B1CD0032B2CD035E0012F84
:101C900008BF002A31D1002E04BF01228CF8512048
:101CA00006D09CF85120002A08BF8CF8424001D091
:101CB0008CF842809CF85C20022A1ED08CF83D50A3
:101CC0001BE01AB19CF850204AB314E09CF8512054
:101CD000002A14BF8CF842808CF842409CF85C20AB
:101CE000022A0AD0EAE71AB19CF85020BAB102E001
:101CF0009CF851209AB18CF84280CCE911968CF86E
:101D00005C40CCF84C408CF839108CF85D40027C7B
:101D10000068BDE8F0030CF1380108F03BB98CF81D
:101D20004240EAE770477047704770472DE9F04F2F
:101D300083B0054600680026029007F088FF01285E
:101D40001CBF03B0BDE8F08F286807F053FF0028E0
:101D500004BF03B0BDE8F08F286807F04BFF10F414
:101D6000001F03D029684FF400104861286807F06D
:101D700041FF10F4801F03D029684FF480104861A0
:101D8000286807F037FF10F0806F03D029684FF004
:101D900080604861286807F02DFF10F0020F4FF0B7
:101DA00002071CBF28684761286807F023FF10F06E
:101DB000005F12D00298D0F8400420F02E01029863
:101DC000C0F8401428460DF0F6F80121286808F004
:101DD00002F829684FF000504861286807F00AFFB0
:101DE00010F0807F52D02C68D4F840040190D4F8D1
:101DF000400420F02E000090019810F0020F0ED049
:101E0000019810F0010F06D0A06920F00051A161E7
:101E100028460DF0CCF8009840F0020000900198A0
:101E200010F0080F28D0009840F0080000900198AA
:101E300010F0040F6ED0A86902280CD0E8680328BF
:101E400004BF4EF66020C4F8040428460DF0AFF835
:101E5000E86888B90BE0019800F4C020B0F5802F45
:101E6000286814BF0121022107F0B5FFEDE72868BB
:101E7000816941F000518161019810F0200F0098B4
:101E80001CBF40F020000090C4F84004286807F010
:101E9000B1FE10F0080F4FF0080404D028460DF0F2
:101EA00082F828684461286807F0A4FE10F0007FDB
:101EB00000F06582286808F055F90090A8680028AD
:101EC00088BF4FF0000840F256824FF00109009899
:101ED00009FA06F1014200F04982029800EB46102F
:101EE000D0F8000506F0FF0A10F4004F286800EB58
:101EF0004A14D4F8080500F0040000F0218180B1F4
:101F00000420C4F80805D4F80C0540F00200C4F819
:101F10000C0546E0D4F8400420F02E00C4F840043C
:101F2000A5E7D4F8080510F0200F18BF202036D1FF
:101F3000D4F8080510F0080F17D0D4F80C0540F0BD
:101F40000200C4F80C050AEB8A0205EBC201052069
:101F500081F85D001020C4F808050820C4F80805C1
:101F60005146286808F003F91BE0D4F8080510F47E
:101F7000806F16D0D4F80C0540F00200C4F80C05B0
:101F80005146286808F0F3F81020C4F808050AEB59
:101F90008A0205EBC201082081F85D00C001C4F887
:101FA0000805D4F8080510F4007F75D1D4F80805A9
:101FB00010F0010F42D0286950B10AEB8A0105EBFD
:101FC000C100D4F81025816CC2F31202891AC164D1
:101FD0000AEB8A0105EBC10B8BF85D90CBF85880BA
:101FE000C4F808959BF83F00002818BF022802D0CB
:101FF00003280ED01AE0D4F80C0540F00200C4F813
:102000000C055146286808F0B2F81020C4F80805FD
:102010000CE0D4F8000540F00050C4F800054A4632
:102020008BF85C90514628460CF0C9FF9BF8500095
:1020300080F001008BF8500000F098B9D4F8080542
:1020400010F0020F33D0D4F80C0520F00200C4F8D1
:102050000C050AEB8A0105EBC10090F85D1001291F
:1020600008BF80F85C9000F07981052905D0062929
:1020700018BF082907D000F071B94FF0050180F8AA
:102080005C1000F06BB9816D01F1010282650329DA
:1020900000F2948100F098B99DE0D4F8001521F089
:1020A000804141F00041C4F8001500F057B9D4F860
:1020B000080510F0800F17D0D4F80C0540F002008E
:1020C000C4F80C050AEB8A0105EBC100816D491CBF
:1020D0008165062180F85D105146286808F047F8B0
:1020E000EAE0C4F8080541E1D4F8080510F0100F43
:1020F00051D00AEB8A0105EBC10999F83F0003288A
:1021000004D0002818BF02280BD012E0D4F80C0528
:1021100040F00200C4F80C055146286808F027F882
:1021200007E0D4F8000520F0804040F00040C4F8FB
:102130000005032089F85D001020C4F8080515E1AA
:1021400048B10420C4F80805D4F80C0540F002009A
:10215000C4F80C050AE1D4F8080510F0200F1BD0D4
:102160004FF02000C4F808050AEB8A0105EBC1090D
:1021700099F83D0001280ED1042089F85D00D4F8BB
:102180000C0540F00200C4F80C055146286807F021
:10219000EEFF89F85C70E9E0D4F8080510F0400F14
:1021A00014D00AEB8A0205EBC200042180F85D100E
:1021B000C0F85880D4F80C0540F00200C4F80C05B3
:1021C0005146286807F0D3FF40208AE7D4F8080575
:1021D00010F4007F0CD0D4F80C0540F00200C4F8D5
:1021E0000C055146286807F0C2FF4FF4007078E7ED
:1021F000D4F8080510F0010F14D00AEB8A0105EBA2
:10220000C10BCBF85880D4F80C0540F00200C4F89C
:102210000C055146286807F0AAFFC4F808958BF80A
:102220005D90A3E0D4F8080510F0080F14D0082042
:10223000C4F80805D4F80C0540F00200C4F80C05F9
:102240005146286807F093FF0AEB8A0205EBC200AB
:10225000052180F85D1089E0D4F8080510F0100F12
:1022600014D00AEB8A0105EBC109C9F85880D4F8EB
:102270000C0540F00200C4F80C055146286807F030
:1022800076FF032089F85D0010202AE7D4F80805BE
:1022900010F0800F12D0D4F80C0540F00200C4F802
:1022A0000C055146286807F062FF0AEB8A0205EB2D
:1022B000C201062081F85D00802012E7D4F80805ED
:1022C00010F4806F17D0D4F80C0540F00200C4F869
:1022D0000C055146286807F04AFF1020C4F808058D
:1022E0008001C4F808050AEB8A0205EBC201082048
:1022F00081F85D003AE0D4F8080510F0020F35D0FF
:10230000D4F80C0520F00200C4F80C050AEB8A0191
:1023100005EBC10090F85D10012913D0032908BF17
:1023200080F85C701AD0042904BF80F85C7080F8D3
:102330003D8013D005293FF4A0AE062918BF082917
:1023400037D00BE080F85C9090F83F10022905D15F
:1023500090F8511081F0010180F85110C4F808750F
:1023600090F85C20514628460CF029FEA868761C9F
:10237000B0423FF6AAAD29684FF000704861286866
:1023800007F038FC10F0100F04BF03B0BDE8F08F69
:102390002868816921F0100181612B689846186ACC
:1023A000C0F3434100F00F07C0F30A1602290ED014
:1023B00033E0816D4A1C8265032905D90421C0F8E8
:1023C000588080F85C1068E680F85C7065E626B39B
:1023D00007EB870105EBC104616CF1B13246184689
:1023E00007F03CFB606C30446064E06C3044E064B7
:1023F00008EB4710D0F81015304A11420DD0D0F834
:10240000001521F0804141F00041C0F8001594F81A
:10241000500080F0010084F850002868816941F084
:102420001001816103B0BDE8F08F10B5044690F84B
:102430009002012804BF022010BD012084F8900200
:10244000206806F0D4FE0121206807F03DFC002042
:1024500084F8900210BD10B5044690F8900201284F
:1024600004BF022010BD012084F89002206807F00C
:1024700042FF002084F8900210BD006807F0C6BC3F
:1024800090F89102704701EB810100EBC10090F8D8
:102490005C00704701EB810100EBC100C06C70472C
:1024A00001EB810100EBC10090F85D00704700680E
:1024B00007F0C9BC006807F0BEBC00000000F81FB0
:1024C0007248016841F080510160016821F080513B
:1024D000016070470121080290FAA0F0B0FA80F084
:1024E000800000F1844000F56020016070474FF4E7
:1024F000807090FAA0F00021B0FA80F0800000F126
:10250000844000F5602001607047614910B40A689A
:10251000036822F0E0021A430A605E490A6822F466
:1025200080320A600A1F136823F4803313600B1D86
:10253000D3F800C02CF4803CC3F800C003F1040CB5
:10254000DCF8004024F48034CCF80040446814F4F3
:10255000803F03D0146844F480341460426812F45D
:10256000003F03D00A6842F480320A60017911F01A
:10257000010F03D0196841F480311960007910F01F
:10258000020F04BF10BC7047DCF8000040F480303C
:10259000CCF8000010BC7047102090FAA0F0012188
:1025A000B0FA80F0800000F1844000F56020016006
:1025B0007047102090FAA0F00021B0FA80F080005F
:1025C00000F1844000F560200160704730494A689E
:1025D0001043486070472E494A6822EA000048606C
:1025E00070472D48026822F004020260012904BFEE
:1025F00030BF704740BF20BF20BF7047244A1368D8
:1026000023F00303184310602348026842F00402D9
:10261000026001290FBF30BF40BF20BF20BF01684B
:1026200021F00401016070471948016841F002017E
:1026300001601948016841F00401016030BF704732
:10264000704710B5154C206810F4803F08BF10BDCE
:10265000FFF7F6FF4FF48030206010BD0E48016890
:1026600041F00201016070470B48016821F002014E
:10267000016070470848016841F01001016070472F
:102680000548016821F010010160704720380240C0
:1026900000700040043C014010ED00E0143C01409B
:1026A0000120410291FAA1F1B1FA81F170B58900DE
:1026B00001F1844101F56021C1F8800007F055FF68
:1026C000C34D0446686810F0080F0BD107F04DFFAA
:1026D000001BB0F57A7F01D9032070BD686810F047
:1026E000080FF3D0002070BD4FF4007191FAA1F1F2
:1026F000B1FA81F170B5890001F1844101F56021E1
:102700000020C1F8800007F030FFB14D0446686832
:1027100010F0080F0BD007F028FF001BB0F57A7FF0
:1027200001D9032070BD686810F0080FF3D10020B4
:1027300070BD0121480290FAA0F0B0FA80F080004C
:1027400000F1844000F56020016070474FF4007094
:1027500090FAA0F00021B0FA80F0800000F18440EF
:1027600000F56020016070479948006800F440401F
:102770007047F8B507469748016841F080510160FD
:10278000006800F0805000909348006800F00C0052
:10279000082804BF0120F8BD0020904E306607F0E5
:1027A000E4FE8F4D0446286810F0007F08D007F043
:1027B000DCFE001B64282CD8286810F0007FF6D1BE
:1027C000834C206820F4404038432060206800F4A7
:1027D000404000900120306607F0C7FE064628689A
:1027E00010F0007F08D107F0C0FE801B642810D8CD
:1027F000286810F0007FF6D007F0B7FE0546606845
:1028000010F4804F0BD107F0B0FE401BB0F57A7F7B
:1028100001D90320F8BD606810F4804FF3D0002088
:10282000F8BDF8B56B48016841F08051016000685F
:10283000012600F080500090300490FAA0F0B0FA29
:1028400080F0800000F1844000F56020066007F011
:102850008CFE5F4C0546606810F4803F09D107F09C
:1028600084FE401BB0F57A7F1CD8606810F4803F6E
:10287000F5D04FF4003090FAA0F0B0FA80F080006C
:1028800000F1844000F56020066007F06EFE05460A
:10289000606810F4003F0BD107F067FE401BB0F5F5
:1028A0007A7F01D90320F8BD606810F4003FF3D0AF
:1028B0000020F8BDF8B54748016841F0805101603B
:1028C0000068002600F0805000904FF4003090FA2D
:1028D000A0F0B0FA80F0800000F1844000F56020A4
:1028E000066007F042FE3A4C0546606810F4003F6F
:1028F00009D007F03AFE401BB0F57A7F1CD860681B
:1029000010F4003FF5D14FF4803090FAA0F0B0FA07
:1029100080F0800000F1844000F56020066007F040
:1029200024FE0546606810F4803F0BD007F01DFEC2
:10293000401BB0F57A7F01D90320F8BD606810F420
:10294000803FF3D10020F8BD2DE9F84380462148AF
:102950000F46016841F08051016000681C4C00F096
:1029600080500090606840F440206060206840F42F
:102970004020206007F0F9FD064660684FF44025CE
:1029800035EA00000CD107F0F0FD801BB0F57A7F2E
:1029900002D90320BDE8F883606835EA0000F2D070
:1029A000206820F0030020F4406040EA0800206026
:1029B0000C48016841F004010160012F0CBF30BFD9
:1029C00020BF016821F0040101600020BDE8F88308
:1029D0000070004040380240083802400000474282
:1029E0000038024010ED00E070472DE9F84F044632
:1029F0000078DFF804B410F0010F4FF0000741F247
:102A00008836FE4D5AD0DBF8000000F00C00042898
:102A10000BD0DBF8000000F00C0008280ED105F107
:102A20000400006810F4800F08D0286810F4003FFC
:102A300044D06068002800F0A6813FE0DFF8C09332
:102A400089F8007007F091FD8046286810F4003F77
:102A50000AD007F08AFDA0EB0800B04200F23E81E8
:102A6000286810F4003FF4D1207989F800006068EC
:102A700090B107F07AFD8046286810F4003F1DD120
:102A800007F073FDA0EB0800B04200F22781286830
:102A900010F4003FF4D011E007F067FD804628688D
:102AA00010F4003F0AD007F060FDA0EB0800B04230
:102AB00000F21481286810F4003FF4D12078DFF888
:102AC000448310F0020F51D0DBF800004FF0F80AF9
:102AD00010F00C0F18D0DBF8000000F00C000828F4
:102AE00004D1C948006810F4800F0DD0E06850B3DD
:102AF0004FF00100C8F8000007F037FD8146286854
:102B000010F0020F09D012E0286810F0020F1CBF6D
:102B1000E06801280BD000F036B907F026FDA0EBE5
:102B2000090064287ED8286810F0020FF5D02868C4
:102B30009AFAAAF22169B2FA82F220F0F8009140E2
:102B40000843286012E0C8F8007007F00EFD8146C7
:102B5000286810F0020F09D007F007FDA0EB09006C
:102B600064285FD8286810F0020FF5D1207810F0A3
:102B7000080F2ED0A548DFF898A26169A9B10121FC
:102B8000016007F0F2FC8146DAF8000010F0020F55
:102B90001FD107F0EAFCA0EB0900642842D8DAF85C
:102BA000000010F0020FF4D013E0076007F0DDFC26
:102BB0008146DAF8000010F0020F0AD007F0D5FCC9
:102BC000A0EB090064282DD8DAF8000010F0020FFD
:102BD000F4D1207810F0040F68D08E48016841F0DD
:102BE000805101600068DFF830A200F08050009052
:102BF000DAF8000040F48070CAF8000007F0B5FC75
:102C00008146DAF8000010F4807F0AD107F0ADFCAD
:102C1000A0EB0900642861D8DAF8000010F4807F86
:102C2000F4D000E05AE0DFF8F4A18AF8007007F071
:102C30009CFC8146DAF8000010F0020F0AD007F081
:102C400094FCA0EB0900B04248D8DAF8000010F07C
:102C5000020FF4D1207A8AF80000A06898B107F03A
:102C600084FC8146DAF8000010F0020F1ED107F054
:102C70007CFCA0EB0900B04230D8DAF8000010F07C
:102C8000020FF4D012E007F070FC8146DAF8000081
:102C900010F0020F0AD007F068FCA0EB0900B04268
:102CA0001CD8DAF8000010F0020FF4D1A069E0B3EC
:102CB000DBF8001001F00C01082964D00228C8F8E4
:102CC00060700ED007F051FC0446286810F0007FB9
:102CD00056D007F04AFC001B64284DD90320BDE8FC
:102CE000F88F07F042FC0646286810F0007F08D0F5
:102CF00007F03BFC801B6428F0D8286810F0007FA8
:102D0000F6D1D4E90701014347F6C07090FAA0F06C
:102D1000626AB0FA80F002FA00F0A26A4FF0FF3364
:102D200003EB52024FF4403300E029E093FAA3F39F
:102D3000B3FA83F39A40104308434FF0706292FA5B
:102D4000A2F2E16AB2FA82F2914001432E48016098
:102D50000120C8F8600007F008FC0446286810F05D
:102D6000007F0DD107F001FC001B6428B6D828684D
:102D700010F0007FF6D003E0286810F0007FA8D1A3
:102D80000020BDE8F88F0120BDE8F88F2DE9F0475D
:102D9000DFF88CA004460E46DAF8000001F0FF09C7
:102DA00000F00F001549144F41F28838B0426FD23D
:102DB0008AF80090DAF8000000F00F00B04252D11B
:102DC000207810F0020F05D03868A26820F0F000DB
:102DD00010433860207810F0010F3FD06068012860
:102DE0003DD0022818BF032809683DD011F0020F1A
:102DF00039D0396816E00000083802400038024037
:102E0000023802400000474204380240800E474228
:102E10007438024040380240007000407038024070
:102E2000003C024021F0030141EA0000386007F055
:102E30009CFB0546606801281AD0022829D0032887
:102E400037D0386810F00C0F08D007F08EFB401B0D
:102E5000404567D8386810F00C0FF6D1A5E0096836
:102E600011F4003FC5D19DE011F0007FC1D199E080
:102E7000386800F00C00042870D007F076FB401B87
:102E800040454FD8386800F00C000428F5D18CE09C
:102E900016E0386800F00C0008285FD007F065FBEA
:102EA000401B40453ED8386800F00C000828F5D19A
:102EB0007BE0386807F059FB401B4045F9D931E009
:102EC000207810F0020F05D03868A26820F0F000DA
:102ED00010433860207810F0010F5BD06068012843
:102EE00023D0022818BF0328096823D011F0020F4D
:102EF00058D0396821F0030141EA0000386007F03A
:102F000034FB05466068012818D0022827D0032822
:102F100035D0386810F00C0F3CD007F026FB401B72
:102F2000404533D90320BDE8F087096811F4003F1C
:102F3000DFD137E011F0007FDBD133E0386800F0FB
:102F40000C00042826D007F010FB401B4045E9D8B0
:102F5000386800F00C000428F5D11BE025E0386843
:102F600000F00C00082815D007F0FFFA401B404580
:102F7000D8D8386800F00C000828F5D10AE0386885
:102F800007F0F3FA401B4045F9D9CBE7386810F059
:102F90000C0FC2D18AF80090DAF8000000F00F00A0
:102FA000B04202D00120BDE8F087207810F0040F75
:102FB00005D03868E16820F4E05008433860207894
:102FC00010F0080F06D03868216920F4604040EA0C
:102FD000C10038600F20FDF712F90020BDE8F0872E
:102FE00070B50D461446BF49002202230028BE4E8C
:102FF000086886B04FF0030C19D040F00400086058
:10300000086800F00400059048150090CDE90132F1
:10301000CDE903C26946B548FEF7AEFB306845EA24
:10302000C40120F078400843306006B070BD40F025
:10303000010008600868694600F0010005904FF43F
:1030400080700090CDE90132CDE903C2A848FEF7B7
:1030500093FB306845EA040120F0EC6008433060DF
:1030600006B070BDA3490120C8647047A149002083
:10307000C86470479C48006810F00C019E4808BF67
:103080007047DFF878C2042904BF604670470829FA
:1030900018BF704710B49A4A1168136801F03F01D5
:1030A00013F4800F47F6C0730AD0BCFBF1F011682F
:1030B000194093FAA3F3B3FA83F3D940484309E0E4
:1030C000B0FBF1F01168194093FAA3F3B3FA83F35C
:1030D000D940484311684FF4403292FAA2F201F409
:1030E0004031B2FA82F2D140491C4900B0FBF1F004
:1030F00010BC704710B500F0FEFF7B490968F02254
:1031000092FAA2F201F0F001B2FA82F2D1407D4AC5
:10311000515CC8407C49086010BD10B500F0EBFF61
:10312000714A1168F02393FAA3F301F0F001B3FAA6
:1031300083F321FA03F37349CB5CD840724B1860D8
:1031400012684FF4E05393FAA3F302F4E052B3FA97
:1031500083F3DA40895CC84010BD10B500F0CBFFA6
:10316000614A1168F02393FAA3F301F0F001B3FA76
:1031700083F321FA03F36349CB5CD840624B1860B8
:1031800012684FF4604393FAA3F302F46042B3FA77
:1031900083F3DA40895CC84010BD30B45B4B0F212B
:1031A000016019684FF0050411F4802F4FF0000200
:1031B0004FF0010118BF44605AD0D3F800C01CF092
:1031C000010F14BFC160C260D3F800C0F82595FAA2
:1031D000A5F50CF0F80CB5FA85F52CFA05FCC0F84D
:1031E00010C0DFF82CC1DCF8005015F0040F18BF38
:1031F000846045D0DFF81CC1DCF800C01CF0010F72
:1032000014BF416142611A6812F0807F18BF022129
:1032100081613B490A6802F48002C2610A6802F0D7
:103220003F0202620B6847F6C072134092FAA2F2A4
:10323000B2FA82F223FA02F242620A684FF4403391
:1032400002F4403202F5803293FAA3F35200B3FA4B
:1032500083F3DA40826209684FF0706292FAA2F258
:1032600001F07061B2FA82F2D140C16230BC7047A5
:10327000D3F800C01CF4803F14BF416042609CE75B
:10328000DCF800C01CF0010F14BF81608260B1E760
:103290000F220260144A136803F0030343601368AB
:1032A00003F0F0038360136803F4E053C360126813
:1032B0004FF4E05303EAD20202611748006800F0BD
:1032C0000F000860704770471448006810F0800FC6
:1032D00008BF704710B5FFF7F6FF1149802008704E
:1032E00010BD00003038024008380240000802409B
:1032F00000000240000047420024F40000127A005F
:1033000004380240E87A01086401002000380240D5
:103310007038024074380240003C02400C380240D1
:103320000E380240FE48016841F081010160FD4A0B
:1033300000211160026822F4102222F0A0620260D3
:10334000021D11601368DFF8E0C343EA0C03136049
:10335000F64A1160136843F4405343F0005313607E
:10336000026822F480220260F148016070472DE972
:10337000F84F044600784FF0000BEE4E5D4610F01B
:10338000010F0AD03068A16B20F0C06008433060A4
:10339000A06B002808BF4FF0010B207810F0020F3F
:1033A0000AD03068E16B20F0C05008433060E06B19
:1033B000002808BF4FF0010B207810F0040F0FD049
:1033C0003068216B20F4401008433060206BB0F56A
:1033D000801F08BF4FF0010B02D0002808BF012555
:1033E000207810F0080F0FD03068616B20F4400097
:1033F00008433060606BB0F5800F08BF4FF0010BE1
:1034000002D0002808BF0125207810F0200F64D0DA
:10341000C948016841F0805101600068C74F00F061
:1034200080500090386840F48070386007F09DF854
:103430008046386810F4807F0AD107F096F8A0EB38
:103440000800642800F27E82386810F4807FF4D08F
:10345000DFF8EC82D8F80000B4F8401000F44070B7
:1034600001F44071884238D0D8F80000B5490122F3
:1034700020F440700A6000220A60C8F8000010F0D2
:10348000020F15D007F071F80746D8F8000010F0C9
:10349000020F08BF41F288390AD107F066F8C01B55
:1034A000484500F24F82D8F8000010F0020FF4D027
:1034B000206C4FF4407131EA00029A491CBF086841
:1034C00020F4F8105AD00860D8F80000B4F8401082
:1034D000C1F30B010843C8F80000207810F0100F6A
:1034E00004D0994994F85800C1F8E001207810F010
:1034F000800F964805D00168E26C21F44001114329
:103500000160217811F0400F05D00168A26C21F014
:10351000806111430160218811F4807F0AD0016825
:10352000626D21F0006111430160616DB1F1006FC6
:1035300008BF0125218811F4007F05D00168626C65
:1035400021F080511143016021884FF4403711F47C
:10355000806F4FF0706847F6C0794FF0FF3A09D09E
:103560000168226D21F0005111430160206DB0F11E
:10357000005F11D0BBF1000F0ED108E00A6820F403
:10358000407022F4F81220F0704010439BE720684E
:10359000B0F5006F40F048816D490020886606F064
:1035A000E4FF83465E48006810F0006F0BD006F021
:1035B000DCFFA0EB0B00642800F2C48158480068CF
:1035C00010F0006FF3D12268584812F0010F4FF04D
:1035D000E04101D0A36B23B112F0020F38D0E26BAF
:1035E000B2BB026897FAA7F302F44032B3FA83F34E
:1035F000DA40521C0368520098FAA8FC03F070638A
:10360000BCFA8CFC23FA0CF3D4E901CB99FAA9FE9D
:10361000BEFA8EFE0BFA0EFB4CEA0B0C97FAA7FBD8
:103620000AEB5202BBFA8BFB02FA0BF298FAA8FBE8
:10363000BBFA8BFB03FA0BF31A434CEA020291FA32
:10364000A1FC6369BCFA8CFC03FA0CF31A43026018
:10365000226812F0040F03D0236BB3F5801F06D04D
:1036600012F0080F43D0626BB2F5800F3FD10268B1
:1036700097FAA7F302F44032B3FA83F3DA40521C0C
:103680000368520091FAA1FC03F0E043BCFA8CFC01
:1036900023FA0CF3D4E901CB99FAA9FEBEFA8EFE07
:1036A0000BFA0EFB4CEA0B0C97FAA7FB0AEB520243
:1036B000BBFA8BFB02FA0BF298FAA8FED4F810B012
:1036C000BEFA8EFE0BFA0EFB42EA0B024CEA020235
:1036D00091FAA1FCBCFA8CFC03FA0CF31A430260C9
:1036E0003268A36A22F01F025B1E1A4332602288EE
:1036F00012F4806F58D0226DB2F1005F54D102688D
:1037000097FAA7F302F44032B3FA83F3DA40521C7B
:103710005300026891FAA1FC02F0E0421AE00000B6
:10372000003802400838024010300004843802405B
:103730000C3802408C380240403802400070004093
:1037400070380240400E4742001047429438024011
:1037500000004742BCFA8CFC22FA0CF2D4E901CBFF
:1037600099FAA9FEBEFA8EFE0BFA0EFB4CEA0B0C80
:10377000D4F80CB097FAA7FE0AEB5B0BBEFA8EFEEC
:103780000BFA0EFB98FAA8FEBEFA8EFE03FA0EF3B1
:103790004BEA03034CEA030391FAA1FCBCFA8CFC4C
:1037A00002FA0CF21A430260228812F4006F25D04C
:1037B000D4E9012399FAA9FCBCFA8CFC03FA0CF3B6
:1037C0001A43E36897FAA7FC0AEB5303BCFA8CFC94
:1037D00003FA0CF398FAA8FBD4F810C0BBFA8BFBE1
:1037E0000CFA0BFC43EA0C03134391FAA1F1626952
:1037F000B1FA81F102FA01F119430160FE49012099
:10380000886606F0B2FE8346FC48016811F0006F3E
:103810000AD106F0AAFEA0EB0B0064287ED8F74878
:10382000006810F0006FF4D0002D78D0F24900202D
:10383000086706F09AFEF14D8346286810F0005F95
:1038400009D006F092FEA0EB0B0064287AD8286815
:1038500010F0005FF5D12068E94910F0040F01D0A5
:10386000226B22B110F0080F2FD0606B68BB086884
:1038700097FAA7F200F44030B2FA82F2D040401C2E
:10388000D4E90623400099FAA9FCBCFA8CFC03FA9F
:103890000CF31A4397FAA7F30AEB5000B3FA83F339
:1038A000984098FAA8FC636ABCFA8CFC03FA0CF303
:1038B0001843104308603068E26A6FF0FF0320F499
:1038C000F85003EB022210433060208810F4807F10
:1038D00029D0606DB0F1006F25D1086898FAA8F280
:1038E00000F07060B2FA82F2D040D4E9062399FA6F
:1038F000A9FCBCFA8CFC03FA0CF31A43236A97FA6E
:10390000A7FC0AEB5303BCFA8CFC03FA0CF398FAFD
:10391000A8FCBCFA8CFC00FA0CF001E012E018E004
:10392000184310430860B4490120086706F01DFEE3
:103930000446286810F0005F0BD106F016FE001B4D
:10394000642802D90320BDE8F88F286810F0005FD2
:10395000F3D00020BDE8F88F70B440F2FF71016031
:10396000A8490A683F2494FAA4F302F03F02B3FA8C
:1039700083F3DA4042600B6847F6C07292FAA2FC09
:103980001340BCFA8CFC23FA0CF383600B6803F43D
:10399000403C4FF4403393FAA3F5B5FA85F52CFA81
:1039A00005FC0CF1010C4FEA4C0CC0F80CC0D1F82E
:1039B00000C00CF070654FF0706C9CFAACF6B6FA73
:1039C00086F6F540056109684FF0E04595FAA5F5E2
:1039D00001F0E041B5FA85F5E940416188490D689B
:1039E00094FAA4F405F03F05B4FA84F425FA04F43B
:1039F00084610C68144092FAA2F2B2FA82F224FABC
:103A000002F2C2610A6893FAA3F302F44032B3FAF5
:103A100083F3DA40521C5200026209689CFAACF24D
:103A200001F07061B2FA82F2D140416276490A68CF
:103A30001F2393FAA3F302F01F02B3FA83F3DA40D1
:103A400082620A684FF4F85393FAA3F302F4F8522F
:103A5000B3FA83F3DA40C2620A6802F440120263E6
:103A60000A6802F4400242630A6802F0C06282639C
:103A70000A6802F0C052C263644A1268644B02F4DE
:103A8000F8121B6803F440731A430264614A136816
:103A900003F080638364136803F44003C364136812
:103AA00003F000634365136803F0805343641268B6
:103AB00002F000520265096811F0807118BF0121FF
:103AC00080F8581070BC70470146002004291CBFC4
:103AD000082970474C49096801F470010A03120B68
:103AE00018BF704709150D2928BF7047DFE801F09E
:103AF00007264560262525254525252562004648BB
:103B0000006810F4800F3E48006800F03F000CBFD2
:103B100042494349B1FBF0F0394A11681268C1F3D8
:103B20000361C2F388125043B0FBF1F136480068DC
:103B3000C0F30420401CB1FBF0F070473648006829
:103B400010F4800F2F48006800F03F000CBF33498D
:103B50003349B1FBF0F02B4A11681268C1F30361DD
:103B6000C2F388125043B0FBF1F12748006800F01F
:103B70001F00401CB1FBF0F070472749086810F4A3
:103B8000800F086803BF00F03F00244AB2FBF0F04A
:103B900000F03F021CBF2248B0FBF2F00A6809683F
:103BA000C2F30272C1F388114843B0FBF2F07047D0
:103BB0001C4870471848006810F4800F0CBF174865
:103BC000174870472DE9F84F0446DFF840A0007809
:103BD000AAF1040810F0010F4FF0000741F28836F7
:103BE000A8F104057DD0DAF8000000F00C000428EC
:103BF0002ED0DAF8000017E00000474200380240FB
:103C000088380240843802408C380240083802402C
:103C10007038024094380240043802400024F40016
:103C200000127A000080BB0000F00C00082804D1CC
:103C3000D8F8000010F4800F0AD1DAF800104FF025
:103C40000C0088430DD1D8F8000010F4800F08D084
:103C5000286810F4003F44D06068002800F0B88164
:103C60003FE0DFF83CB58BF8007006F07EFC814643
:103C7000286810F4003F0AD006F077FCA0EB09009A
:103C8000B04200F24881286810F4003FF4D1207956
:103C90008BF80000606890B106F067FC81462868E8
:103CA00010F4003F1DD106F060FCA0EB0900B0420B
:103CB00000F23181286810F4003FF4D011E006F0E2
:103CC00054FC8146286810F4003F0AD006F04DFCF1
:103CD000A0EB0900B04200F21E81286810F4003FFA
:103CE000F4D12078DFF8BC9410F0020F5BD0DAF842
:103CF000000010F00C0F22D0DAF8000000F00C00E9
:103D0000082804BFD8F8000010F4800F17D0DAF8A4
:103D100000104FF00C00884304BFD8F8000010F4E6
:103D2000800F0CD0E06858B30120C9F8000006F0FD
:103D30001CFC8346286810F0020F09D012E02868A6
:103D400010F0020F1CBFE06801280BD000F040B952
:103D500006F00BFCA0EB0B0064287DD8286810F05F
:103D6000020FF5D02868226920F0F801F82090FAB7
:103D7000A0F0B0FA80F002FA00F00843286012E0E8
:103D8000C9F8007006F0F1FB8346286810F0020FB6
:103D900009D006F0EAFBA0EB0B0064285CD8286889
:103DA00010F0020FF5D1207810F0080F2CD0FE484B
:103DB0006169A9B10121016006F0D7FB8346FB4888
:103DC000016811F0020F1FD106F0CFFBA0EB0B0032
:103DD000642841D8F548006810F0020FF4D013E0D1
:103DE000076006F0C2FB8346F048016811F0020F3D
:103DF0000AD006F0BAFBA0EB0B0064282CD8EB48E5
:103E0000006810F0020FF4D1207810F0040F6AD08F
:103E1000E748016841F080510160006800F080507F
:103E20000090E448006840F48071E248016006F0C8
:103E30009CFB8346DF48006810F4807F0AD106F0BF
:103E400094FBA0EB0B00642865D8DA48006810F4F6
:103E5000807FF4D0D84800E05DE0077006F085FB75
:103E60008346D548006810F0020F0AD006F07DFBAB
:103E7000A0EB0B00B0424ED8CF48006810F0020F04
:103E8000F4D1CD49207A0870A068B0B106F06DFB7E
:103E90008346C948016811F0020F08BF064622D1C7
:103EA00006F063FBA0EB0B0141F28830814232D86F
:103EB000306810F0020FF3D015E006F056FB834691
:103EC000BD48016811F0020F18BF06460BD006F07E
:103ED0004CFBA0EB0B0141F2883081421BD83068CB
:103EE00010F0020FF3D1A069E8B3DAF8001001F086
:103EF0000C0108296CD00228C9F860700ED006F0B9
:103F000034FB0446286810F0007F5ED006F02DFBDD
:103F1000001B642855D90320BDE8F88F06F025FB67
:103F20000646286810F0007F08D006F01EFB801BB4
:103F30006428F0D8286810F0007FF6D1D4E9070192
:103F4000014347F6C07292FAA2F2606AB2FA82F2B4
:103F50009040A26A4FF0FF3303EB52024FF440331C
:103F600093FAA3F300E030E0B3FA83F39A401043EE
:103F700008434FF0706292FAA2F2E16AB2FA82F25A
:103F8000914008434FF0E04292FAA2F2216BB2FA5C
:103F900082F291400843C8F800000120C9F860008F
:103FA00006F0E3FA0446286810F0007F0DD106F011
:103FB000DCFA001B6428AED8286810F0007FF6D029
:103FC00003E0286810F0007FA0D10020BDE8F88F42
:103FD0000120BDE8F88F30B4784B0F2101601968DB
:103FE0004FF0050411F4802F4FF000024FF0010153
:103FF00018BF446065D0D3F800C01CF0010F14BF97
:10400000C160C260D3F800C0F82595FAA5F50CF0A0
:10401000F80CB5FA85F52CFA05FCC0F810C0DFF8ED
:1040200098C1DCF8005015F0040F18BF846050D020
:10403000DFF878C1DCF800C01CF0010F14BF41614B
:1040400042611A6812F0807F18BF022181615C49C9
:104050000A6802F48002C2610A6802F03F0202624A
:104060000B6847F6C072134092FAA2F2B2FA82F2DB
:1040700023FA02F242620A684FF4403302F44032FB
:1040800002F5803293FAA3F35200B3FA83F3DA40D5
:1040900082620A684FF0706393FAA3F302F07062D1
:1040A000B3FA83F3DA40C26209684FF0E04292FA51
:1040B000A2F201F0E041B2FA82F2D140016330BCD9
:1040C0007047D3F800C01CF4803F14BF41604260C9
:1040D00091E7DCF800C01CF0010F14BF8160826022
:1040E000A6E73549012808680CBF40F0080020F019
:1040F000080008607047334810B4006810F00C01E5
:10410000314804BF10BC7047DFF8C0C0042902BFAB
:10411000604610BC704747F6C0720829284B15D07E
:104120000C291CBF10BC704719681C6801F03F01C6
:1041300014F4800F4CD0BCFBF1F01968114092FAD6
:10414000A2F2B2FA82F2D14048434BE019681C68EF
:1041500001F03F0114F4800F0AD0BCFBF1F01968A4
:10416000114092FAA2F2B2FA82F2D140484309E039
:10417000B0FBF1F01968114092FAA2F2B2FA82F2A1
:10418000D140484319684FF4403292FAA2F201F448
:104190004031B2FA82F2D140491C49002CE00000C3
:1041A0000238024000004742800E47427438024005
:1041B0004038024000700040703802400038024031
:1041C00004380240083802400024F40000127A004B
:1041D000B0FBF1F01968114092FAA2F2B2FA82F241
:1041E000D140484319684FF0E04292FAA2F201F040
:1041F000E041B2FA82F2D140B0FBF1F010BC70475E
:1042000070B504460068C16811F0400F17D14FF037
:10421000FF31C16006F0A9F905462068C06810F0BA
:10422000400F0CD106F0A1F9401BB0F57A7F01D9FF
:10423000032070BD2068C06810F0400FF2D000204D
:1042400070BD7047002804BF0120704710B50446B8
:10425000407F20B9002020772046FFF7F2FF0220A0
:1042600060772168CA20486221685320486220464E
:10427000FFF7C6FFFF210028206804D04162042018
:104280006077012010BD826822F0400222F4E00233
:1042900082602068826863681A43D4E9043C43EA78
:1042A0000C031A4382602268E0681061206802698A
:1042B000238942EA034202612068C26822F0800238
:1042C000C2602068026C22F4802202642068026CC2
:1042D000A3691A43026420684162012060770020CC
:1042E00010BD704770B504460068C16821F0A00198
:1042F000C16006F03AF905462068C06810F0200F4A
:104300000CD106F032F9401BB0F57A7F01D90320B9
:1043100070BD2068C06810F0200FF2D0002070BD82
:104320002DE9F0410446022060772168CA204862E6
:104330002168532048622046FFF762FFFF274FF0B5
:104340000408002848D1206800250560216842F251
:10435000011048602068816801F00701816006F063
:1043600004F906462068C06810F0040F0FD106F06B
:10437000FCF8801BB0F57A7F206804D947620320DF
:104380006077BDE8F081C06810F0040FEFD02068BE
:104390008168856021684FF6FF7048612168FC489C
:1043A0000861206885612068C56120680562206811
:1043B000C5622068C56320684564206885642068FC
:1043C000C560206805642068806810F0200F0AD15D
:1043D0002046FFF787FF30B12068476284F81D80D0
:1043E0000120BDE8F081206847622046FFF779FF91
:1043F000657725770020BDE8F081010901EB810197
:1044000000F00F0000EB4100C0B2704700210A2805
:1044100004D30A38C0B2491C0A28FAD2090740EA74
:10442000116070472DE9F0470446007F0D460128D2
:1044300004BF0220BDE8F0874FF0010984F81C900A
:104440000220607720680027806800F0400072B189
:10445000002808BFEF70A8782978EA7840EA014080
:104460006978090241EA024140EA010612E00028A7
:1044700008BFEF702878FFF7C9FF02046878FFF7DC
:10448000C5FF42EA0022A878FFF7C0FFE978104391
:1044900040EA01462168CA204862216853204862E8
:1044A0002046FFF7ADFE4FF0FF084FF0040AE8B9D1
:1044B000B8482168304008602068816821F4802174
:1044C0008160D5E90301014320688268114381605E
:1044D0002068C16821F08001C1602068806810F008
:1044E000200F0CD12046FFF7FDFE40B12068C0F838
:1044F000248084F81DA027770120BDE8F08720687C
:10450000C0F8248084F81D9027770020BDE8F0874C
:1045100030B403689B6A4B6003681B69C3F30E03E6
:104520008B60006800689B4B1840C0F30543C0F3E4
:1045300006240B7000F07F0C4C70402581F802C0FF
:1045400005EA1040C870C2B9180900EB800003F0FA
:104550000F0202EB40000870200900EB800004F01D
:104560000F0202EB400048704FEA1C1000EB800085
:104570000CF00F0202EB4000887030BC0020704746
:104580002DE9F0470446007F0B46012804BF0220B6
:10459000BDE8F0870126267702206077D2B19878AF
:1045A000DA78597840EA02401A78090241EA423141
:1045B00040EA01052168CA20486221685320486208
:1045C0002046FFF71DFE00274FF0FF084FF00409BB
:1045D00058BB18E0587810F0100F03D000F0EF002F
:1045E0000A305870D878FFF711FF02045878FFF7A7
:1045F0000DFF42EA00229878FFF708FF1978104370
:1046000040EA4135D6E7216825F0C00048602068BF
:10461000C16821F08001C1602068806810F0200F1F
:104620000CD12046FFF75EFE40B12068C0F8248020
:1046300084F81D9027770120BDE8F0872068C0F836
:104640002480667727770020BDE8F08710B40068E3
:10465000406820F0C00020F07F404FEA104CC0F3CB
:10466000042381F803C000F03F044B708C70C0F34A
:1046700042300870C2B94FEA1C1000EB80000CF009
:104680000F0202EB4000C870180900EB800003F035
:104690000F0202EB40004870200900EB800004F09C
:1046A0000F0202EB4000887010BC002070472DE91B
:1046B000F05F0446007F0B46012804BF0220BDE8DE
:1046C000F09F4FF0010A84F81CA002206077206858
:1046D0000027806800F04000BAB1002808BFDF70F2
:1046E00099781A7893F803C041EA02415A78D86958
:1046F000120242EA0C42114393F8202041EA02617F
:104700000843596940EA01051DE0002808BFDF7031
:104710001878FFF77BFE02045878FFF777FE42EA2D
:1047200000229878FFF772FED978104340EA0142E0
:1047300093F82000FFF76AFED96942EA0060084357
:10474000596940EA01059969586840EA01062168FB
:10475000CA204862216853204862586A4FF0FF0916
:10476000B0F5807F20684FF0030B816814D021F4EE
:10477000007181602068816821F40051816005F03A
:10478000F4FE80462068C06810F0020F29D03DE09A
:10479000FF007F007F7F7F0021F4807181602068AF
:1047A000816821F48051816005F0DFFE8046206839
:1047B000C06810F0010F0BD105F0D7FEA0EB080088
:1047C000B0F57A7F14D82068C06810F0010FF3D0DC
:1047D0002068C561206846642068816841F4807162
:1047E0001CE005F0C2FEA0EB0800B0F57A7F08D906
:1047F0002068C0F8249084F81DB027770320BDE816
:10480000F09F2068C06810F0020FEAD020680562AF
:10481000206886642068816841F4007181602068A6
:10482000C0F8249084F81DA027770020BDE8F09FF1
:104830002DE9F05F0446007F0B46012804BF0220EB
:10484000BDE8F09F4FF0010A84F81CA002206077B9
:1048500020680027806800F04000BAB1002808BF37
:10486000DF7099781A7893F803C041EA02415A78C8
:10487000D869120242EA0C42114393F8202041EA1F
:1048800002610843596940EA01051DE0002808BF9C
:10489000DF701878FFF7BAFD02045878FFF7B6FD0D
:1048A00042EA00229878FFF7B1FDD978104340EA38
:1048B000014293F82000FFF7A9FDD96942EA0060A0
:1048C0000843596940EA01059969586840EA0106B8
:1048D0002168CA204862216853204862586A4FF014
:1048E000FF09B0F5807F20684FF0030B816812D07C
:1048F00021F4007181602068C16801F0800161F4D9
:104900002071C16005F031FE80462068C06810F05B
:10491000020F2CD040E021F4807181602068C168D2
:1049200001F0800161F4C071C16005F01EFE804697
:104930002068C06810F0010F0BD105F016FEA0EB47
:104940000800B0F57A7F19D82068C06810F0010F10
:10495000F3D02068C561206846642068816841F40E
:10496000807181602068816841F4805121E005F008
:10497000FCFDA0EB0800B0F57A7F08D92068C0F8EC
:10498000249084F81DB027770320BDE8F09F2068AD
:10499000C06810F0020FEAD02068056220688664C3
:1049A0002068816841F4007181602068816841F469
:1049B000005181609248016841F4003101609148E2
:1049C000016841F4003101602068C0F8249084F847
:1049D0001DA027770020BDE8F09F2DE9F047044691
:1049E000007F012804BF0220BDE8F0874FF00108D6
:1049F00084F81C80022060772268CA2050622268F6
:104A00005320506220680026FF27B1F5807F81681F
:104A10004FF0030910D021F4007181602068816893
:104A200021F40051816005F0A0FD05462068C068B2
:104A300010F0020F1CD02EE021F4807181602068FC
:104A4000816821F48051816005F08FFD0546206862
:104A5000C06810F0010F1ED105F087FD401BB0F5B6
:104A60007A7F0BD82068C06810F0010FF4D012E0F4
:104A700005F07BFD401BB0F57A7F07D920684762BF
:104A800084F81D9026770320BDE8F0872068C06871
:104A900010F0020FECD02068476284F81D80267762
:104AA0000020BDE8F08770B4B2F5807F22D04FF4CB
:104AB00000724A620268106A926CC0F30545C2F344
:104AC0000E0C0D70C0F306224A7000F07F044026E1
:104AD0008C7006EA1046CE70C1F804C0C0F3056CB5
:104AE00000F0804681F820C000F08030CE6148613F
:104AF0004BBB06E04FF480724A620268D069526C88
:104B0000DBE7280900EB800005F00F0303EB400012
:104B10000870100900EB800002F00F0202EB400069
:104B20004870200900EB800004F00F0202EB400007
:104B300088704FEA1C1000EB80000CF00F0202EBB3
:104B4000400081F8200070BC00207047704710B50D
:104B500004460068C16811F4807F1CBF806810F4AF
:104B6000805F09D02046FFF7F1FF2068C16801F09F
:104B7000800161F4C071C1602068C16811F4007FD8
:104B80001CBF806810F4005F09D0204600F0E5FDEE
:104B90002068C16801F0800161F42071C1601A4988
:104BA0004FF4003008600120607710BD70B50D46ED
:104BB000044605F0DAFC06462068C06810F4807FE1
:104BC00010D1B5F1FF3F08D025B105F0CEFC801B18
:104BD000A84202D90320607770BD2068C06810F435
:104BE000807FEED02068C16801F0800161F4C0715F
:104BF000C16001206077002070BD407F70470000D9
:104C0000003C0140083C0140143C0140037F012B63
:104C100004BF0220704710B40124047702234377B5
:104C20000368D3F808C02CF0080C2CF4006C4CEA94
:104C3000010CCA21596203685321596201680B6C47
:104C400023F400330B6401680B6C1A430A64016897
:104C5000C1F808C001688A6842F400628A6002688C
:104C6000FF21516244770021017710BC084670474C
:104C7000037F012B04BF0220704710B40124047786
:104C8000022343770368D3F808C02CF0080C2CF4F7
:104C9000006C4CEA01014FF0CA0CC3F824C0D0F8F4
:104CA00000C05323CCF824300368996001680B6C72
:104CB00023F400330B6401680B6C1A430A64016827
:104CC0008A6842F400628A6001688A6842F400429D
:104CD0008A60FE490A6842F400120A60FC490A68C8
:104CE00042F400120A600268FF21516244770021F9
:104CF000017710BC08467047017F012904BF0220DC
:104D0000704701230377022141770268CA2151626B
:104D100002685321516201688A6822F400428A6065
:104D200001688A6822F0080222F400628A60026840
:104D3000FF2151624377002101770846704770B523
:104D4000064600680C461546016BE24A406B11406E
:104D500020F0C002C1F305402070C1F3062060704E
:104D600001F07F00A070402000EA1140E070306840
:104D7000806B60600020E870C2F30420687002F06D
:104D80003F00A870C2F342302870BBB92078FFF70B
:104D900034FB20706078FFF730FB6070A078FFF77D
:104DA0002CFBA0706878FFF728FB6870A878FFF7E5
:104DB00024FBA8702878FFF720FB28703068C168B2
:104DC00001F0800161F40861C160002070BD027FC4
:104DD000012A04BF022070474FF0010C80F81CC06C
:104DE000022242778A6812B10A6852008A6030B49F
:104DF000D1E90023D1E9024513432C4323430C6935
:104E000023434C6923438C69C96923430B43B2494B
:104E100041EA42010A4301680C6C24EA02020A6476
:104E200001680A6C1A430A6480F81DC000210177EA
:104E300030BC08467047027F012A04BF0220704739
:104E40004FF0010C80F81CC0022242778A6812B130
:104E50000A6852008A6030B4D1E90023D1E90245E2
:104E600013432C4323430C6923434C6923438C692C
:104E7000C96923430B43994941EA42010A43016846
:104E80000C6C24EA02020A6401680A6C1A430A6480
:104E900001680A6C42F004020A648C490A6842F410
:104EA00000120A608A490A6842F400120A6080F817
:104EB0001DC00021017730BC08467047027F012ADF
:104EC00004BF022070470123037702224277026861
:104ED000D2F840C02CEA0101116443770021017728
:104EE0000846704770477047704710B50446006821
:104EF000C16811F4006F1CBF806810F4004F09D026
:104F00002046FFF7F1FF2068C16801F0800161F4DD
:104F10000861C1602068C16811F4005F1CBF006CAB
:104F200010F0040F09D02046FFF7DDFF2068C168AC
:104F300001F0800161F40251C1602068C16811F480
:104F4000804F1CBF006C10F0040F09D02046FFF703
:104F5000C9FF2068C16801F0800161F48141C1602E
:104F60005F494FF4001008600120607710BD70B5F4
:104F70000D46044605F0F9FA06462068C06810F4AC
:104F8000006F20D12068C06810F4805F0AD02068CC
:104F9000C16801F0800161F48451C1600420607730
:104FA000012070BDB5F1FF3F08D025B105F0DDFA55
:104FB000801BA84202D90320607770BD2068C068BA
:104FC00010F4006FDED001206077002070BD70B556
:104FD0000D46044605F0C9FA06462068C06810F47C
:104FE000005F10D1B5F1FF3F08D025B105F0BDFA43
:104FF000801BA84202D90320607770BD2068C0687A
:1050000010F4005FEED02068C16801F0800161F407
:105010000251C16001206077002070BD70B50D465F
:10502000044605F0A2FA06462068C06810F4804FD6
:1050300010D1B5F1FF3F08D025B105F096FA801BDD
:10504000A84202D90320607770BD2068C06810F4C0
:10505000804FEED02068C16801F0800161F4814189
:10506000C16001206077002070BD2DE9F05F04462B
:10507000007F92468B46012804BF0220BDE8F09FC6
:105080004FF0010884F81C80022060772168CA2054
:105090004862216853204862206880684FF000060B
:1050A00010F4806F4FF0FF074FF003091FD005F099
:1050B0005CFA05462068C06810F0040F17D005F0B0
:1050C00054FA401BB0F57A7F24D80BE0003C014035
:1050D000083C01407F7F7F0084FF010080FF0100CA
:1050E000143C01402068C06810F0040FE7D120682C
:1050F000816821F48061816005F037FA05462068F7
:10510000C06810F0040F12D105F02FFA401BB0F563
:105110007A7F07D92068476284F81D90267703209C
:10512000BDE8F09F2068C06810F0040FECD0206844
:10513000816821F0070181602068816841EA0A01E5
:1051400081602068C0F814B02068816841F48061F3
:1051500081602068476284F81D8026770020BDE8C2
:10516000F09F2DE9F05F0446007F92468B460128B0
:1051700004BF0220BDE8F09F4FF0010884F81C80B6
:10518000022060772168CA20486221685320486263
:10519000206880684FF0000610F4806F4FF0FF0722
:1051A0004FF0030912D005F0E0F905462068C06809
:1051B00010F0040F0AD005F0D8F9401BB0F57A7F43
:1051C00017D82068C06810F0040FF4D120688168F7
:1051D00021F48061816005F0C8F905462068C06847
:1051E00010F0040F12D105F0C0F9401BB0F57A7F22
:1051F00007D92068476284F81D9026770320BDE810
:10520000F09F2068C06810F0040FECD02068C0F850
:1052100014B02068816821F00701816020688168EE
:1052200041EA0A018160FE48016841F480010160A1
:10523000FC48016841F4800101602068816841F404
:10524000804181602068816841F4806181602068CC
:10525000476284F81D8026770020BDE8F09F2DE985
:10526000F0410446007F012804BF0220BDE8F08120
:1052700001262677022060772168CA2048622168CB
:10528000532048622068816821F480618160206831
:10529000816821F48041816005F067F90546206846
:1052A000C0684FF0000710F0040F4FF0FF0811D155
:1052B00005F05BF9401BB0F57A7F206806D9C0F88D
:1052C0002480032060772777BDE8F081C06810F064
:1052D000040FEDD02068C0F824806677277700207F
:1052E000BDE8F0810068406980B27047704710B532
:1052F00004460068C16811F4806F1CBF806810F418
:10530000804F09D02046FFF7F1FF2068C16801F007
:10531000800161F49061C160C3494FF4800008606E
:105320000120607710BD70B50D46044605F01DF9EB
:1053300006462068C06810F4806F10D1B5F1FF3FB9
:1053400008D025B105F011F9801BA84202D903202D
:10535000607770BD2068C06810F4806FEED0206860
:10536000C16801F0800161F49061C1600120607743
:10537000002070BD0068503040F821207047006860
:10538000503050F8210070472DE9F0410446007F6D
:1053900017460D46012804BF0220BDE8F081012612
:1053A0002677022060772168CA204862216853204E
:1053B00048622046FEF724FF0021FF2200282068D3
:1053C00006D042620420607721770120BDE8F08199
:1053D000836843F080038360236845EA070098618F
:1053E0002068C36823F08003C36020684262667748
:1053F00021770020BDE8F08170B50446007F0128C8
:1054000004BF022070BD0125257702206077216846
:10541000CA2048622168532048622046FEF7F0FE09
:105420000022FF210028206805D041620420607717
:105430002277012070BD836823F080038360206899
:10544000C36823F08003C3602068416265772277D8
:10545000002070BD2DE9F05F0446007F994692461A
:105460008B46012804BF0220BDE8F09F0126267765
:10547000022060772168CA20486221685320486270
:105480002068C0684FF0000710F4803F4FF0FF081D
:1054900019D005F06AF805462068C06810F4803F0E
:1054A00011D005F062F8401BB0F57A7F206806D96C
:1054B000C0F82480032060772777BDE8F09FC0689C
:1054C00010F4803FEDD121684BEA0A0040EA090060
:1054D000C8632068C0F82480667727770020BDE87D
:1054E000F09F2DE9F0470446007F91468A46012847
:1054F00004BF0220BDE8F0874FF0010884F81C804B
:10550000022060772168CA204862216853204862DF
:1055100005F02BF805462068C0684FF0000610F033
:10552000080F4FF0FF0710D005F01FF8401BB0F533
:105530007A7F206805D94762032060772677BDE827
:10554000F087C06810F0080FEED1206881684FF036
:10555000040511F0100F05D047626577267701200A
:10556000BDE8F08749EA0A01C1622068806810F04E
:10557000200F06D12046FEF7B5FE002818BF206890
:10558000EAD12068476284F81D8026770020BDE8B4
:10559000F087027F012A04BF0220704701230377AE
:1055A00002224277D0F800C0CA22CCF82420D0F8DA
:1055B00000C05322CCF824200268D2F808C02CF492
:1055C000002CC2F808C00268D2F808C04CEA0101F9
:1055D000916001688A6842F400028A600268FF21D3
:1055E000516243770021017708467047017F012906
:1055F00004BF02207047012202770221417703682D
:10560000CA21596203685321596201688B6823F4E7
:1056100000038B600368FF2159624277002105E097
:10562000003C0140083C0140143C01400177084621
:10563000704770B50446007F012804BF022070BD8A
:1056400001252577022060772168CA2048622168F9
:10565000532048622046FEF7D3FD0022FF21002898
:10566000206805D04162042060772277012070BD58
:10567000836843F0100383602068C36823F08003CD
:10568000C3602068416265772277002070BD70B5E5
:105690000446007F012804BF022070BD0125257744
:1056A000022060772168CA2048622168532048623E
:1056B0002046FEF7A5FD0022FF210028206805D026
:1056C0004162042060772277012070BD836823F057
:1056D000100383602068C36823F08003C3602068E0
:1056E000416265772277002070BD017F012904BFE8
:1056F0000220704701220277022141770368CA2104
:10570000596203685321596201688B6843F0200392
:105710008B600368FF2159624277002101770846B8
:105720007047017F012904BF0220704701220277E0
:10573000022141770368CA215962036853215962E3
:1057400001688B6803F0DF038B600368FF215962F7
:1057500042770021017708467047704770B50D46C3
:10576000044604F002FF06462068C06810F4007F7B
:1057700010D1B5F1FF3F08D025B104F0F6FE801B33
:10578000A84202D90320607770BD2068C06810F479
:10579000007FEED02068C16801F0800161F42071C3
:1057A000C16001206077002070BD0000F0B4026885
:1057B000F84BDFF8E4C3F94DF94EFA4C984218BFA4
:1057C000B0F1804F07D0604518BFA84203D0B04267
:1057D00018BFA04204D14F6822F0700247EA0202CB
:1057E000984218BFB0F1804F25D0604518BFA8423D
:1057F00021D0B04218BFA0421DD0A0F1804CBCF512
:10580000A03C1CBFA0F1804CBCF5A23C13D0A0F181
:10581000804CBCF5A43C1CBFA0F1804CBCF5C05C26
:1058200009D0A0F1804CBCF5E05C1CBFA0F1804C1D
:10583000BCF5005C05D1D1F80CC022F440724CEAF2
:10584000020202608A68C2620A688262984212BFDB
:10585000A042096901634FF001014161F0BC70474A
:105860007047002804BF0120704710B5044690F827
:10587000390028B9002084F83800204606F069F87D
:10588000022084F83900211D2068FFF78FFF0120D6
:1058900084F83900002010BD704710B5044602207E
:1058A00084F839002068016A41F21112114207D1CF
:1058B000016A9210114203D1016821F001010160D7
:1058C000204606F0A4F8002084F8390084F8380057
:1058D00010BD022180F8391001680A6842F0010207
:1058E0000A60012180F8391000207047022180F8F9
:1058F000391001680A6A41F211131A4207D10A6A83
:105900009B101A4203D10A6822F001020A600121A9
:1059100080F83910002070470168CA6842F001021F
:10592000CA600068016841F0010101600020704711
:105930000168CA6822F00102CA600068016A41F287
:105940001112114207D1016A9210114203D101686C
:1059500021F00101016000207047704710B5806B95
:10596000012180F83910FFF7F8FF10BD704710B51E
:10597000806B012180F83910FFF7F8FF10BD10B5DA
:10598000044690F83900022808BF10BD94F8390089
:10599000012807D119B9002A1CBF012010BD02201F
:1059A00084F83900E3698048D863AFF24F00E369B7
:1059B000986420681346D4F81CC000F12C0260469D
:1059C000FBF7C2FC2068C16841F48071C1602068A7
:1059D000016841F001010160002010BD0168CA6842
:1059E00022F48072CA6001680A6A41F211131A42F5
:1059F00007D10A6A9B101A4203D10A6822F00102F9
:105A00000A60012180F83910002070477047002893
:105A100004BF0120704710B5044690F8390028B93A
:105A2000002084F838002046FFF7F0FF022084F8B9
:105A30003900211D2068FFF7B9FE012084F83900E4
:105A4000002010BD704710B50446022084F83900CC
:105A50002068016A41F21112114207D1016A9210C5
:105A6000114203D1016821F0010101602046FFF7D6
:105A7000E9FF002084F8390084F8380010BD0123C4
:105A8000D0F820C08B402CEA03030362036A02FAB9
:105A900001F119430162704710B504460068012204
:105AA000FFF7EDFF2168A1F18040B0F580301CBF09
:105AB000A1F18040B0F5823003D1486C40F4004041
:105AC00048642068016841F001010160002010BDB8
:105AD00010B5044600680022FFF7D1FF216841F2AB
